{
  "transactions": [
    {
      "hash": "0x51000f78c14f12171a90813d973b5a8946bca77b09136a90a9a62aec301d9c0d",
      "transactionType": "CREATE",
      "contractName": "Dex",
      "contractAddress": "0x9522e862300360f8a54bde6758040cae34cc2d0a",
      "function": null,
      "arguments": null,
      "transaction": {
        "from": "0xb04d6a4949fa623629e0ed6bd4ecb78a8c847693",
        "gas": "0x7f555",
        "value": "0x0",
        "input": "0x6080604052348015600f57600080fd5b5061064c8061001f6000396000f3fe608060405234801561001057600080fd5b506004361061007d5760003560e01c8063431f63c91161005b578063431f63c9146100d6578063c47f002714610102578063d02641a014610115578063ff0c67371461013e57600080fd5b806306fdde031461008257806317d7de7c146100a0578063204120bc146100a8575b600080fd5b61008a610151565b604051610097919061030c565b60405180910390f35b61008a6101df565b6100c86100b6366004610376565b60006020819052908152604090205481565b604051908152602001610097565b6101006100e4366004610391565b6001600160a01b03909116600090815260208190526040902055565b005b6101006101103660046103d1565b610271565b6100c8610123366004610376565b6001600160a01b031660009081526020819052604090205490565b6100c861014c366004610376565b610281565b6001805461015e9061048a565b80601f016020809104026020016040519081016040528092919081815260200182805461018a9061048a565b80156101d75780601f106101ac576101008083540402835291602001916101d7565b820191906000526020600020905b8154815290600101906020018083116101ba57829003601f168201915b505050505081565b6060600180546101ee9061048a565b80601f016020809104026020016040519081016040528092919081815260200182805461021a9061048a565b80156102675780601f1061023c57610100808354040283529160200191610267565b820191906000526020600020905b81548152906001019060200180831161024a57829003601f168201915b5050505050905090565b600161027d8282610513565b5050565b6001600160a01b0381166000818152602081905260408082205490516370a0823160e01b8152306004820152919284926370a0823190602401602060405180830381865afa1580156102d7573d6000803e3d6000fd5b505050506040513d601f19601f820116820180604052508101906102fb91906105d2565b61030591906105eb565b9392505050565b602081526000825180602084015260005b8181101561033a576020818601810151604086840101520161031d565b506000604082850101526040601f19601f83011684010191505092915050565b80356001600160a01b038116811461037157600080fd5b919050565b60006020828403121561038857600080fd5b6103058261035a565b600080604083850312156103a457600080fd5b6103ad8361035a565b946020939093013593505050565b634e487b7160e01b600052604160045260246000fd5b6000602082840312156103e357600080fd5b813567ffffffffffffffff8111156103fa57600080fd5b8201601f8101841361040b57600080fd5b803567ffffffffffffffff811115610425576104256103bb565b604051601f8201601f19908116603f0116810167ffffffffffffffff81118282101715610454576104546103bb565b60405281815282820160200186101561046c57600080fd5b81602084016020830137600091810160200191909152949350505050565b600181811c9082168061049e57607f821691505b6020821081036104be57634e487b7160e01b600052602260045260246000fd5b50919050565b601f82111561050e57806000526020600020601f840160051c810160208510156104eb5750805b601f840160051c820191505b8181101561050b57600081556001016104f7565b50505b505050565b815167ffffffffffffffff81111561052d5761052d6103bb565b6105418161053b845461048a565b846104c4565b6020601f821160018114610575576000831561055d5750848201515b600019600385901b1c1916600184901b17845561050b565b600084815260208120601f198516915b828110156105a55787850151825560209485019460019092019101610585565b50848210156105c35786840151600019600387901b60f8161c191681555b50505050600190811b01905550565b6000602082840312156105e457600080fd5b5051919050565b808202811582820484141761061057634e487b7160e01b600052601160045260246000fd5b9291505056fea26469706673582212205d9549ae488d6d065b48aaa0cb6bf1e820ab11456df780b30bac2477bfe8037064736f6c634300081a0033",
        "nonce": "0x2b2",
        "chainId": "0xaa36a7"
      },
      "additionalContracts": [],
      "isFixedGasLimit": false
    },
    {
      "hash": "0x6a5fe10e9ac29d0c8e3cc88546df3245b2499605333f4cb2bc79b7e5dad04113",
      "transactionType": "CALL",
      "contractName": "Dex",
      "contractAddress": "0x9522e862300360f8a54bde6758040cae34cc2d0a",
      "function": "setName(string)",
      "arguments": [
        "2"
      ],
      "transaction": {
        "from": "0xb04d6a4949fa623629e0ed6bd4ecb78a8c847693",
        "to": "0x9522e862300360f8a54bde6758040cae34cc2d0a",
        "gas": "0xf023",
        "value": "0x0",
        "input": "0xc47f0027000000000000000000000000000000000000000000000000000000000000002000000000000000000000000000000000000000000000000000000000000000013200000000000000000000000000000000000000000000000000000000000000",
        "nonce": "0x2b3",
        "chainId": "0xaa36a7"
      },
      "additionalContracts": [],
      "isFixedGasLimit": false
    }
  ],
  "receipts": [
    {
      "status": "0x1",
      "cumulativeGasUsed": "0x52a317",
      "logs": [],
      "logsBloom": "0x00000000000000000000000000000000000000000000000000000000000000000000000000000000000000000000000000000000000000000000000000000000000000000000000000000000000000000000000000000000000000000000000000000000000000000000000000000000000000000000000000000000000000000000000000000000000000000000000000000000000000000000000000000000000000000000000000000000000000000000000000000000000000000000000000000000000000000000000000000000000000000000000000000000000000000000000000000000000000000000000000000000000000000000000000000000",
      "type": "0x2",
      "transactionHash": "0x51000f78c14f12171a90813d973b5a8946bca77b09136a90a9a62aec301d9c0d",
      "transactionIndex": "0x2a",
      "blockHash": "0x403e04815f3b124c806047e5b2956fc0a1c9b414f0fbc77bf1ee1f3740697157",
      "blockNumber": "0x69f826",
      "gasUsed": "0x61f96",
      "effectiveGasPrice": "0x23d4759",
      "from": "0xb04d6a4949fa623629e0ed6bd4ecb78a8c847693",
      "to": null,
      "contractAddress": "0x9522e862300360f8a54bde6758040cae34cc2d0a"
    },
    {
      "status": "0x1",
      "cumulativeGasUsed": "0x5350f3",
      "logs": [],
      "logsBloom": "0x00000000000000000000000000000000000000000000000000000000000000000000000000000000000000000000000000000000000000000000000000000000000000000000000000000000000000000000000000000000000000000000000000000000000000000000000000000000000000000000000000000000000000000000000000000000000000000000000000000000000000000000000000000000000000000000000000000000000000000000000000000000000000000000000000000000000000000000000000000000000000000000000000000000000000000000000000000000000000000000000000000000000000000000000000000000",
      "type": "0x2",
      "transactionHash": "0x6a5fe10e9ac29d0c8e3cc88546df3245b2499605333f4cb2bc79b7e5dad04113",
      "transactionIndex": "0x2b",
      "blockHash": "0x403e04815f3b124c806047e5b2956fc0a1c9b414f0fbc77bf1ee1f3740697157",
      "blockNumber": "0x69f826",
      "gasUsed": "0xaddc",
      "effectiveGasPrice": "0x23d4759",
      "from": "0xb04d6a4949fa623629e0ed6bd4ecb78a8c847693",
      "to": "0x9522e862300360f8a54bde6758040cae34cc2d0a",
      "contractAddress": null
    }
  ],
  "libraries": [],
  "pending": [],
  "returns": {},
  "timestamp": 1729887112,
  "chain": 11155111,
  "commit": "51da11c"
}